:100000000C9450000C946D000C946D000C946D00D9
:100010000C94DE000C946D000C946D000C94DB02CB
:100020000C946D000C946D000C946D000C946D009C
:100030000C946D000C946D000C946D000C946D008C
:100040000C946D000C946D000C946D000C946D007C
:100050000C946D000C946D000C94B3000C946D0026
:100060000C946D000C946D000C946D000C946D005C
:100070000C946D000C946D000C946D000C946D004C
:100080000C946D000C946D000C946D000C946D003C
:100090000C946D000C946D000C946D000C946D002C
:1000A00011241FBECFEFCDBFDFE3DEBF18E2A0E01B
:1000B000B8E2E8E3F6E002C005900D92A032B10785
:1000C000D9F728E2A0E2B8E201C01D92A532B2073A
:1000D000E1F70E9411020C941A030C94000060E0F6
:1000E00081E690E00E941403089580E00FC0E82F9D
:1000F000F0E09F01220F331FE20FF31FEF5FF74D78
:10010000A081B181928111969C938F5F8A3078F3A0
:100110000895E0E8F4E082E0828381898860818B41
:100120000895E0E0FAE081E0828711828DE899E0AD
:1001300086A397A38FE080830895E0E0F6E083E054
:100140008083118296E5928390E29383868381E097
:10015000828780870895E0E4F1E081E0878399E673
:10016000908B828B08951F920F920FB60F921124DD
:100170002F938F939F9380911006909111068093F7
:100180002228909323288D3C924038F08AE193E115
:100190008093360A9093370A06C089E69CE48093E0
:1001A000360A9093370A81E0809324289F918F919B
:1001B0002F910F900FBE0F901F9018951F920F92C6
:1001C0000FB60F9211248F939F9381E08093530178
:1001D000909120288927809320289F918F910F90BC
:1001E0000FBE0F901F90189590E020C0882379F0E3
:1001F000E92FF0E09F01220F331FE20FF31FEF5FA3
:10020000F74DA081B181228115962C930EC0E92F64
:10021000F0E09F01220F331FE20FF31FEF5FF74D56
:10022000A081B181228116962C939F5F9A30F0F2C3
:10023000089580E00E94F400809122289091232864
:100240008636910578F014C0FC01EE0FFF1FE80F11
:10025000F91FEF5FF74DA081B181228115962C9394
:10026000019602C080E090E0181619066CF7089518
:100270008D3C910578F014C0FC01EE0FFF1FE80FD4
:10028000F91FEF5FF74DA081B181228115962C9364
:10029000019602C080E090E0823091056CF30895F1
:1002A000833321E0920778F014C0FC01EE0FFF1FAA
:1002B000E80FF91FEF5FF74DA081B18122811596FC
:1002C0002C93019602C080E090E0833091056CF39E
:1002D0000895893921E0920778F014C0FC01EE0FEF
:1002E000FF1FE80FF91FEF5FF74DA081B181228159
:1002F00015962C93019602C080E090E08430910521
:100300006CF30895811522E0920778F014C0FC0187
:10031000EE0FFF1FE80FF91FEF5FF74DA081B181CE
:10032000228115962C93019602C080E090E08530E2
:1003300091056CF30895863622E0920778F014C098
:10034000FC01EE0FFF1FE80FF91FEF5FF74DA081D3
:10035000B181228115962C93019602C080E090E035
:10036000863091056CF308958C3C22E0920778F07A
:1003700014C0FC01EE0FFF1FE80FF91FEF5FF74DF0
:10038000A081B181228115962C93019602C080E054
:1003900090E0873091056CF30895823323E0920753
:1003A00078F014C0FC01EE0FFF1FE80FF91FEF5F9C
:1003B000F74DA081B181228115962C93019602C040
:1003C00080E090E0883091056CF30895893993407E
:1003D00088F080E090E021C0FC01EE0FFF1FE80FE5
:1003E000F91FEF5FF74DA081B181228115962C9303
:1003F000019602C080E090E0893091056CF3089589
:10040000FC01EE0FFF1FE80FF91FEF5FF74DA08112
:10041000B181228115962C9301968A30910584F33F
:1004200008950E946F000E9489000E9475000E943A
:1004300091000E949D000E94AB00789480918804F6
:1004400081FDFCCF809124288130C1F70E941901E1
:1004500010922428F3CF80910028813021F5E0917B
:100460002128E93089F4F0E03197CF01880F991FF6
:10047000E80FF91FEF5FF74DA081B18182811596DA
:100480008C93109200280895F0E03196CF01880FE8
:10049000991FE80FF91FEF5FF74DA081B1818281AD
:1004A00015968C930895811124C0E0912128E111C3
:1004B00012C0F0E03196CF01880F991FE80FF91FA5
:1004C000EF5FF74DA081B181828115968C9381E019
:1004D000809300280895F0E03197CF01880F991F8D
:1004E000E80FF91FEF5FF74DA081B181828115966A
:1004F0008C93089580910028813021F5E091212886
:10050000E93089F4F0E03197CF01880F991FE80FA7
:10051000F91FEF5FF74DA081B181828116968C9310
:10052000109200280895F0E03196CF01880F991FAE
:10053000E80FF91FEF5FF74DA081B1818281169618
:100540008C930895811124C0E0912128E11112C0FB
:10055000F0E03196CF01880F991FE80FF91FEF5F88
:10056000F74DA081B181828116968C9381E08093B2
:1005700000280895F0E03197CF01880F991FE80F08
:10058000F91FEF5FF74DA081B181828116968C93A0
:10059000089580910028811106C080912128815002
:1005A000809321280895813029F4809121288F5F3C
:1005B0008093212808951F920F920FB60F92112455
:1005C0002F933F934F935F936F937F938F939F935B
:1005D000AF93BF93EF93FF938091880481FF10C086
:1005E00080912028811105C00E94F4000E942B02F6
:1005F00005C081E00E94F4000E947A020E94C902B4
:1006000081E080930B0AFF91EF91BF91AF919F9191
:100610008F917F916F915F914F913F912F910F90AB
:100620000FBE0F901F901895DC0128ED2093340029
:080630006C930895F894FFCFCC
:1006380001400420400410000401A00420400440AC
:10064800200404A0041000040200040400040800AC
:00000001FF
