:100000000C9450000C9465000C9465000C946500F1
:100010000C9465000C9465000C9465000C946500CC
:100020000C9465000C9465000C9465000C946500BC
:100030000C9465000C9465000C9465000C946500AC
:100040000C9465000C9465000C9465000C9465009C
:100050000C9465000C9465000C9465000C9465008C
:100060000C9465000C9465000C9465000C9465007C
:100070000C9465000C9465000C9465000C9465006C
:100080000C9465000C9465000C9465000C9465005C
:100090000C9465000C9465000C9465000C9465004C
:1000A00011241FBECFEFCDBFDFE3DEBF18E2A0E01B
:1000B000B8E2ECE2F4E002C005900D92AE31B10777
:1000C000D9F70E94ED010C9414020C94000060E03A
:1000D00081E690E00E940E02089580E00FC0E82FB4
:1000E000F0E09F01220F331FE20FF31FE050F84DA5
:1000F000A081B181928111969C938F5F8A3078F3B1
:100100000895E0E8F4E086E0828381898860818B4D
:1001100082898860828B08958091880481FD4CC01B
:1001200020E0E5C0211120C0822F90E0AC014F5F9C
:100130005F4FFA01EE0FFF1F4E0F5F1FFA01E050F5
:10014000F84DA081B181328116963C93FC01EE0FEF
:10015000FF1F8E0F9F1FFC01E050F84DA081B18161
:10016000828115968C931DC0822F90E0FC013197FF
:10017000AF01440F551FE40FF51FE050F84DA0816B
:10018000B181328116963C93FC01EE0FFF1F8E0F5A
:100190009F1FFC01E050F84DA081B181828115962E
:1001A0008C933FE181EA97E0315080409040E1F745
:1001B00000C000002F5F01C020E0293008F4B2CF5A
:1001C00029E049C0293001F5822F90E0AC0141506F
:1001D0005109FA01EE0FFF1F4E0F5F1FFA01E050A9
:1001E000F84DA081B181328116963C93FC01EE0F4F
:1001F000FF1F8E0F9F1FFC01E050F84DA081B181C1
:10020000828115968C931DC0822F90E0FC0131965F
:10021000AF01440F551FE40FF51FE050F84DA081CA
:10022000B181328116963C93FC01EE0FFF1F8E0FB9
:100230009F1FFC01E050F84DA081B181828115968D
:100240008C933FE181EA97E0315080409040E1F7A4
:1002500000C0000021502111B5CF0895211120C008
:10026000822F90E0AC014F5F5F4FFA01EE0FFF1F4E
:100270004E0F5F1FFA01E050F84DA081B18132812D
:1002800015963C93FC01EE0FFF1F8E0F9F1FFC0184
:10029000E050F84DA081B181828116968C931DC0EB
:1002A000822F90E0FC013197AF01440F551FE40FFE
:1002B000F51FE050F84DA081B181328115963C9335
:1002C000FC01EE0FFF1F8E0F9F1FFC01E050F84D49
:1002D000A081B181828116968C933FE181EA97E0FB
:1002E000315080409040E1F700C000002F5F29307E
:1002F00008F4B4CF29E049C0293001F5822F90E0FD
:10030000AC0141505109FA01EE0FFF1F4E0F5F1F64
:10031000FA01E050F84DA081B181328115963C93ED
:10032000FC01EE0FFF1F8E0F9F1FFC01E050F84DE8
:10033000A081B181828116968C931DC0822F90E09E
:10034000FC013196AF01440F551FE40FF51FE0503B
:10035000F84DA081B181328115963C93FC01EE0FDE
:10036000FF1F8E0F9F1FFC01E050F84DA081B1814F
:10037000828116968C933FE181EA97E0315080406C
:100380009040E1F700C0000021502111B5CF089541
:1003900090E020C0882379F0E92FF0E09F01220F40
:1003A000331FE20FF31FE050F84DA081B18122818D
:1003B00015962C930EC0E92FF0E09F01220F331FFA
:1003C000E20FF31FE050F84DA081B1812281169613
:1003D0002C939F5F9A30F0F208950E9467000E946C
:1003E0006D000E94810081E00E94C8012FEF88E02B
:1003F0009DE3215080409040E1F700C0000080E084
:100400000E94C8012FEF88E09DE32150804090407A
:10041000E1F700C000000E948C00FDCFDC0128ED58
:0C042000209334006C930895F894FFCFF3
:10042C00400420400410000401A00420400440209B
:0E043C000404A00410000402000404000408DC
:00000001FF
