:100000000C9450000C945A000C945A000C945A0012
:100010000C945A000C945A000C945A000C945A00F8
:100020000C945A000C945A000C945A000C945A00E8
:100030000C945A000C945A000C945A000C945A00D8
:100040000C945A000C945A000C945A000C945A00C8
:100050000C945A000C945A000C945A000C945A00B8
:100060000C945A000C945A000C945A000C945A00A8
:100070000C945A000C945A000C945A000C945A0098
:100080000C945A000C945A000C945A000C945A0088
:100090000C945A000C945A000C945A000C945A0078
:1000A00011241FBECFEFCDBFDFE3DEBF0E94830070
:1000B0000C9489000C94000027E030E081E0A0E07F
:1000C000B4E046E050E0982F909514969C931497D6
:1000D000FA013197F1F7880F21503109A1F727E094
:1000E00030E080E8A0E0B4E046E050E0982F909542
:1000F00014969C931497FA013197F1F78695215045
:100100003109A1F708958FEF809300040E945C00ED
:06011000FDCFF894FFCFC3
:00000001FF
