:100000000C9450000C945A000C945A000C945A0012
:100010000C945A000C945A000C945A000C945A00F8
:100020000C945A000C945A000C945A000C945A00E8
:100030000C945A000C945A000C945A000C945A00D8
:100040000C945A000C945A000C945A000C945A00C8
:100050000C945A000C945A000C945A000C945A00B8
:100060000C945A000C945A000C945A000C945A00A8
:100070000C945A000C945A000C945A000C945A0098
:100080000C945A000C945A000C945A000C945A0088
:100090000C945A000C945A000C945A000C945A0078
:1000A00011241FBECFEFCDBFDFE3DEBF0E94A5004E
:1000B0000C94C8000C940000E0E2F4E080818F7D95
:1000C0008083808180618083E0E6F8E08DE890E2C3
:1000D000808791878681806C8683E0EEF5E082815F
:1000E0008064828308959091640895FFFCCF80938B
:1000F00062080895809164088823E4F7809160087D
:1001000008950F931F93CF93DF938C01C0E0D0E04D
:1001100007C0F801EC0FFD1F80810E94730021963B
:10012000F80101900020E9F73197E01BF10BCE17A1
:10013000DF0778F3DF91CF911F910F91089560E071
:1001400081E690E00E94C20008950E949F000E94F4
:100150005C000E947A00813611F0813429F484E930
:1001600091E40E94810004C08DE991E40E94810025
:100170002FE784E89EE1215080409040E1F700C0E5
:100180000000E7CFDC0128ED209334006C93089544
:04019000F894FFCF11
:10019400476F742041210D0A0048656C6C6F20572D
:0801A4006F726C64210D0A006A
:00000001FF
