:100000000C9450000C945A000C945A000C945A0012
:100010000C945A000C945A000C945A000C945A00F8
:100020000C945A000C945A000C945A000C945A00E8
:100030000C945A000C945A000C945A000C945A00D8
:100040000C945A000C945A000C945A000C945A00C8
:100050000C945A000C945A000C945A000C945A00B8
:100060000C945A000C945A000C945A000C945A00A8
:100070000C945A000C945A000C945A000C945A0098
:100080000C945A000C945A000C945A000C945A0088
:100090000C945A000C945A000C945A000C945A0078
:1000A00011241FBECFEFCDBFDFE3DEBF0E9473017F
:1000B0000C9496010C94000060E081E690E00E94B0
:1000C0009001089580E78093400483E080930004CA
:1000D00084E08093200480E38093A0040895CF936C
:1000E000DF93E0E4F4E090E2968380E18683A0E091
:1000F000B4E021E016962C931697C0EAD4E09E83D4
:1001000090E4968394E0909326048E8382E0169682
:100110008C93DF91CF910895CF93DF93E0E4F4E0E7
:1001200090E2958380E18583A0E0B4E021E015961C
:100130002C931597C0EAD4E09D8390E4958394E0D6
:10014000909325048D8382E015968C93DF91CF9157
:10015000089580E05EC0811109C0E0E4F4E094817C
:100160009F7E948394819062948349C0813049F446
:10017000E0E4F4E094819F7D948394819061948382
:100180003EC0823059F4E0E4F4E094819F7E948391
:10019000E0E0F4E094819160948331C0833059F4BD
:1001A000E0E0F4E0948198749483E0EAF4E09481D0
:1001B0009062948324C0843059F4E0EAF4E094819E
:1001C00099749483E0E4F4E094819064948317C07C
:1001D000853059F4E0E4F4E094819F7B9483E0E27D
:1001E000F4E09481946094830AC0E0E2F4E09481A6
:1001F0009B7F9483E0EAF4E09481906194832FE301
:1002000032E49FE0215030409040E1F700C0000010
:100210008F5F873008F49FCF87E062C0873059F442
:10022000E0EAF4E094819F7E9483E0E0F4E094813E
:10023000926094834BC0863059F4E0E0F4E09481FE
:100240009D7F9483E0EAF4E09481906194833EC0C2
:10025000853059F4E0EAF4E094819F7E9483E0E2F3
:10026000F4E094819460948331C0843059F4E0E2E6
:10027000F4E094819B7F9483E0E4F4E094819064C3
:10028000948324C0833059F4E0E4F4E094819F7BAC
:100290009483E0EAF4E094819062948317C0823002
:1002A00059F4E0EAF4E094819F7D9483E0E0F4E087
:1002B0009481916094830AC0E0E0F4E094819E7F91
:1002C0009483E0E4F4E09481906194832FE332E43A
:1002D0009FE0215030409040E1F700C00000815085
:1002E00081119CCF08950E945C000E9462000E94D0
:1002F0008C002FEF88E09DE3215080409040E1F793
:1003000000C000000E946F002FEF88E09DE32150A5
:1003100080409040E1F700C000000E94A900FDCF9E
:10032000DC0128ED209334006C930895F894FFCFFE
:00000001FF
