S01100004D6F746F72546573742E7372656362
S11300000C9450000C945A000C945A000C945A000E
S11300100C945A000C945A000C945A000C945A00F4
S11300200C945A000C945A000C945A000C945A00E4
S11300300C945A000C945A000C945A000C945A00D4
S11300400C945A000C945A000C945A000C945A00C4
S11300500C945A000C945A000C945A000C945A00B4
S11300600C945A000C945A000C945A000C945A00A4
S11300700C945A000C945A000C945A000C945A0094
S11300800C945A000C945A000C945A000C945A0084
S11300900C945A000C945A000C945A000C945A0074
S11300A011241FBECFEFCDBFDFE3DEBF0E9474007B
S11300B00C94B7000C94000060E081E690E00E948C
S11300C0B100089582E080930104E0E0FAE089E061
S11300D0808383E2818387EA91E686A397A382EEF5
S11300E094E082A793A708950E945C000E94620096
S11300F080E090E016C04FE3489F9001499F300D87
S113010011242E513B4F20933A0A30933B0A2FE39C
S11301103DE043E0215030404040E1F700C00000A2
S113012001968431910538F384E190E016C04FE3E1
S1130130489F9001499F300D11242E513B4F20932D
S11301403A0A30933B0A2FE33DE043E0215030402C
S11301504040E1F700C0000001978230910538F774
S1130160C7CFDC0128ED209334006C930895F894F4
S1050170FFCFBB
S9030000FC
