:100000000C9450000C945A000C945A000C945A0012
:100010000C945A000C945A000C945A000C945A00F8
:100020000C945A000C945A000C945A000C945A00E8
:100030000C945A000C945A000C945A000C945A00D8
:100040000C945A000C945A000C945A000C945A00C8
:100050000C945A000C945A000C945A000C945A00B8
:100060000C945A000C945A000C945A000C945A00A8
:100070000C945A000C945A000C945A000C945A0098
:100080000C945A000C945A000C945A000C945A0088
:100090000C945A000C945A000C945A000C945A0078
:1000A00011241FBECFEFCDBFDFE3DEBF0E943F01B3
:1000B0000C9462010C94000060E081E690E00E94E4
:1000C0005C01089580E78093400483E080930004FE
:1000D00084E08093200480E38093A0040895CF936C
:1000E000DF93E0E4F4E090E2968380E18683A0E091
:1000F000B4E021E016962C931697C0EAD4E09E83D4
:1001000090E4968394E0909326048E8382E0169682
:100110008C93DF91CF910895CF93DF93E0E4F4E0E7
:1001200090E2958380E18583A0E0B4E021E015961C
:100130002C931597C0EAD4E09D8390E4958394E0D6
:10014000909325048D8382E015968C93DF91CF9157
:10015000089580E046C0811107C0E0E4F4E090E13A
:10016000968390E2958333C0813039F4E0E4F4E083
:1001700090E2968390E195832AC0823039F490E131
:100180009093460491E09093050421C0833039F4A4
:1001900091E09093060490E29093A50418C08430F7
:1001A00039F490E29093A60490E4909345040FC034
:1001B000853039F490E49093460494E090932504BC
:1001C00006C094E09093260490E19093A5042FE359
:1001D00032E49FE0215030409040E1F700C0000041
:1001E0008F5F873008F4B7CF87E046C0873039F497
:1001F00090E19093A60492E09093050433C086307A
:1002000039F492E09093060490E19093A5042AC0FB
:10021000853039F490E19093A60494E090932504FE
:1002200021C0843039F494E09093260490E49093B4
:10023000450418C0833039F490E49093460490E26A
:100240009093A5040FC0823039F490E29093A604F5
:1002500091E09093050406C091E09093060490E12C
:10026000909345042FE332E49FE0215030409040CA
:10027000E1F700C0000081508111B8CF08950E94BD
:100280005C000E9462000E948C002FEF88E09DE3DA
:10029000215080409040E1F700C000000E946F00B4
:1002A0002FEF88E09DE3215080409040E1F700C0AF
:1002B00000000E94A900FDCFDC0128ED209334004E
:0802C0006C930895F894FFCF40
:00000001FF
