S010000050726F6A656374322E737265630B
S11300000C9450000C946D000C946D000C946D00D5
S11300100C946D000C946D000C946D000C946D00A8
S11300200C946D000C946D000C946D000C946D0098
S11300300C9434010C949B010C946D000C946D0091
S11300400C946D000C946D000C946D000C946D0078
S11300500C946D000C946D000C94DC000C946D00F9
S11300600C946D000C946D000C946D000C946D0058
S11300700C946D000C946D000C946D000C946D0048
S11300800C946D000C946D000C946D000C946D0038
S11300900C94A5010C946D000C946D000C942C022E
S11300A011241FBECFEFCDBFDFE3DEBF18E2A0E017
S11300B0B8E2EDE8F1E102C005900D92A230B1077B
S11300C0D9F728E2A2E0B8E201C01D92AE37B20728
S11300D0E1F70E947D030C9496080C94000060E004
S11300E081E690E00E945F08089583E08093010414
S11300F080E48093410480E38093A1040895E0E8C0
S1130100F1E083E4848B85E084AB86EA808B81E034
S113011080A7089582E080930104E0E0FAE089E09A
S1130120808383E2818387EA91E686A397A382EEA4
S113013094E082A793A70895E0E8FAE083E080833F
S113014085E0818381E0858381E184830895E0EB08
S1130150FAE083E08083118281E0858380E593EC7B
S1130160848795870895E0E0F6E083E0868381E064
S11301708083118295E19283138281878287089517
S1130180E0E2F4E080818F7D8083808180618083E0
S1130190E0E6F8E086EB92E0808791878681806CC8
S11301A08683A0EEB5E012968C9112978064129625
S11301B08C9380E4858308951F920F920FB60F925B
S11301C011242F933F934F935F936F937F938F9358
S11301D09F93AF93BF93CF93DF93EF93FF93C0911C
S11301E01006D0911106C0934328D0934428BE0131
S11301F080E090E00E94A20420E030E040EA50E475
S11302000E94300520E030EC4FE754E40E94FA03EA
S113021020E030E04AE754E40E9430050E946C0478
S113022060937A2870937B2881E080930D28CD3CDD
S1130230D24020F080E18093A50403C080E1809344
S1130240A604FF91EF91DF91CF91BF91AF919F9160
S11302508F917F916F915F914F913F912F910F906B
S11302600FBE0F901F9018951F920F920FB60F920A
S113027011242F933F934F936F937F938F939F9367
S1130280AF93BF93CF93DF93EF93FF93E0E8FAE04C
S113029041E0468324853585ADECBCEC0E949D0588
S11302A0EC01D695C795D695C795D695C795228561
S11302B033850E949D059695879596958795969585
S11302C0879580937C2890937D289C012C1B3D0B63
S11302D020930E2830930F28C0937728D093782842
S11302E040930C288739910520F021E020930504E0
S11302F003C021E0209306048134914020F080E281
S11303008093A50403C080E28093A60480E48093D4
S11303104604FF91EF91DF91CF91BF91AF919F91EF
S11303208F917F916F914F913F912F910F900FBEBD
S11303300F901F9018951F920F920FB60F921124D1
S11303400F900FBE0F901F9018951F920F920FB62B
S11303500F9211242F933F934F938F939F9381E098
S11303608093B60A809107288F5F80930728909125
S11303707928891708F466C080910028811162C029
S11303808091042881112DC0809105289091062820
S113039084319105A9F44FE3489F9001499F300DA2
S11303A011242E513B4F20933A0A30933B0A21E00B
S11303B0209304280197809305289093062811C060
S11303C04FE3489F9001499F300D11242E513B4F1C
S11303D020933A0A30933B0A019680930528909320
S11303E0062880910428813059F580910528909140
S11303F006280097A1F44FE3489F9001499F300DD0
S113040011242E513B4F20933A0A30933B0A109209
S113041004280196809305289093062811C04FE381
S1130420489F9001499F300D11242E513B4F20933A
S11304303A0A30933B0A0197809305289093062843
S1130440109207289F918F914F913F912F910F9078
S11304500FBE0F901F9018951F920F920FB60F9218
S113046011248F93EF93FF93E0E6F8E08481806496
S1130470848380910328E09102288E1751F081E053
S11304808E0F80930228F0E0E05FF74D8081809327
S11304906208FF91EF918F910F900FBE0F901F9004
S11304A01895DC011092032881E0809302280CC087
S11304B0E091032881E08E0F80930328F0E08C9173
S11304C0E05FF74D808311968C918111F1CF80917B
S11304D01028809362080895843511F08437D9F484
S11304E080917D288F9380917C288F9380E391E580
S11304F09F938F9385E498E29F938F930E94AC051A
S113050085E498E20E9451020F900F900F900F9093
S11305100F900F9008958C3411F08C36D9F480919B
S113052078288F93809177288F9385E491E59F9322
S11305308F9385E498E29F938F930E94AC0585E4A2
S113054098E20E9451020F900F900F900F900F901D
S11305500F900895883411F08836D9F480910F28CB
S11305608F9380910E288F9387E591E59F938F93C6
S113057085E498E29F938F930E94AC0585E498E20A
S11305800E9451020F900F900F900F900F900F90B8
S11305900895833411F0833639F481E090E0809338
S11305A00A2890930B280895853411F0853629F490
S11305B010920A2810920B280895813411F0813684
S11305C0D9F4809144288F93809143288F938AE6AD
S11305D091E59F938F9385E498E29F938F930E9474
S11305E0AC0585E498E20E9451020F900F900F90A1
S11305F00F900F900F900895863511F08637D9F437
S113060080917B288F9380917A288F938CE791E552
S11306109F938F9385E498E29F938F930E94AC05F8
S113062085E498E20E9451020F900F900F900F9072
S11306300F900F9008958D3411F08D3639F481E0C8
S113064090E0809308289093092808958E3411F03F
S11306508E3629F4109208281092092808958933B7
S113066031F48AE080937928109200280895883321
S113067031F484E180937928109200280895873317
S113068031F48EE1809379281092002808958633FE
S113069031F488E2809379281092002808958533F4
S11306A031F482E3809379281092002808958433EA
S11306B031F48CE3809379281092002808958333D1
S11306C031F480E5809379281092002808958233CC
S11306D031F484E6809379281092002808958133B8
S11306E031F488EC8093792810920028089580339F
S11306F019F481E08093002808950E946F000E94FD
S113070075000E948A000E949C000E94A7000E941B
S1130710C0000E94B3000E947F0078948091640816
S1130720882334F480916008809342280E946C02EC
S113073080910A2890910B28892B51F180910C28E3
S1130740882361F380917D288F9380917C288F93F7
S113075080E391E59F938F9385E498E29F938F9331
S11307600E94AC0585E498E20E9451022FE38DE0DB
S113077093E0215080409040E1F700C000001092C7
S11307800C280F900F900F900F900F900F90C6CFE2
S11307908091082890910928892B09F4BFCF809172
S11307A00D28882309F4BACF80917B288F938091F8
S11307B07A288F938CE791E59F938F9385E498E251
S11307C09F938F930E94AC0585E498E20E945102A6
S11307D02FE38DE093E0215080409040E1F700C08A
S11307E0000010920D280F900F900F900F900F9013
S11307F00F9094CF0E940E040C94F6040E94EF0410
S113080058F00E94E80440F029F45F3F29F00C946A
S1130810DF0451110C942A050C94E5040E94070589
S113082068F39923B1F3552391F3951B550BBB271B
S1130830AA2762177307840738F09F5F5F4F220F60
S1130840331F441FAA1FA9F335D00E2E3AF0E0E857
S113085032D091505040E695001CCAF72BD0FE2FA1
S113086029D0660F771F881FBB1F26173707480735
S1130870AB07B0E809F0BB0B802DBF01FF279358ED
S11308805F4F3AF09E3F510578F00C94DF040C94CE
S11308902A055F3FE4F3983ED4F3869577956795F0
S11308A0B795F7959F5FC9F7880F911D9695879522
S11308B097F90895E1E0660F771F881FBB1F621741
S11308C073078407BA0720F0621B730B840BBA0BFF
S11308D0EE1F88F7E09508950E9473046894B1119F
S11308E00C942A0508950E940F0588F09F5798F0EC
S11308F0B92F9927B751B0F0E1F0660F771F881F21
S1130900991F1AF0BA95C9F714C0B13091F00E943A
S11309102905B1E008950C942905672F782F8827BD
S1130920B85F39F0B93FCCF3869577956795B39561
S1130930D9F73EF490958095709561957F4F8F4FD0
S11309409F4F0895E89409C097FB3EF490958095D5
S1130950709561957F4F8F4F9F4F9923A9F0F92F81
S113096096E9BB279395F695879577956795B795FF
S1130970F111F8CFFAF4BB0F11F460FF1BC06F5FE5
S11309807F4F8F4F9F4F16C0882311F096E911C0F7
S1130990772321F09EE8872F762F05C0662371F018
S11309A096E8862F70E060E02AF09A95660F771F2C
S11309B0881FDAF7880F9695879597F9089597F920
S11309C09F6780E870E060E008959FEF80EC0895F1
S11309D000240A941616170618060906089500241A
S11309E00A9412161306140605060895092E039494
S11309F0000C11F4882352F0BB0F40F4BF2B11F408
S1130A0060FF04C06F5F7F4F8F4F9F4F089557FD66
S1130A109058440F551F59F05F3F71F04795880F68
S1130A2097FB991F61F09F3F79F0879508951216FF
S1130A3013061406551FF2CF4695F1DF08C01616AB
S1130A4017061806991FF1CF86957105610508945C
S1130A500895E894BB2766277727CB0197F9089573
S1130A600E9443050C94F6040E94E80438F00E94A6
S1130A70EF0420F0952311F00C94DF040C94E504AA
S1130A8011240C942A050E94070570F3959FC1F365
S1130A90950F50E0551F629FF001729FBB27F00D28
S1130AA0B11D639FAA27F00DB11DAA1F649F66277D
S1130AB0B00DA11D661F829F2227B00DA11D621FCC
S1130AC0739FB00DA11D621F839FA00D611D221F86
S1130AD0749F3327A00D611D231F849F600D211D6A
S1130AE0822F762F6A2F11249F5750409AF0F1F0ED
S1130AF088234AF0EE0FFF1FBB1F661F771F881F56
S1130B0091505040A9F79E3F510580F00C94DF04AA
S1130B100C942A055F3FE4F3983ED4F386957795C9
S1130B206795B795F795E7959F5FC1F7FE2B880FFB
S1130B30911D9695879597F90895A29FB001B39F4B
S1130B40C001A39F700D811D1124911DB29F700DD2
S1130B50811D1124911D0895AEE0B0E0E2EBF5E0B3
S1130B600C9473080D891E8986E08C8309831A838B
S1130B708FEF9FE78D839E83AE01475E5F4F6F8942
S1130B80788DCE0101960E94CE05EF81F885E00FA5
S1130B90F11F10822E96E4E00C948C08ABE0B0E0D8
S1130BA0E4EDF5E00C9465086C017B018A01FC011D
S1130BB016821782838181FFCCC1CE0101963C014C
S1130BC0F6019381F70193FD859193FF81917F0154
S1130BD0882309F4BAC1853239F493FD859193FFD2
S1130BE081917F01853229F4B60190E00E94C50706
S1130BF0E7CF912C212C312CFFE1F315D8F08B3267
S1130C0079F038F4803279F08332A1F4232D206115
S1130C101DC08D3261F0803369F4232D216016C02C
S1130C20832D8260382EE32DE4603E2E2AC0F32DFE
S1130C30F8601DC037FC2DC020ED280F2A3040F08D
S1130C408E32B9F436FC81C1232D2064322E19C0B2
S1130C5036FE06C08AE0989E200D1124922E11C003
S1130C60EAE02E9E200D1124222EF32DF0623F2E59
S1130C7008C08C3621F4832D8068382E02C0883653
S1130C8041F4F70193FD859193FF81917F018111D7
S1130C90B3CF982F9F7D9554933028F40C5F1F4F4A
S1130CA09FE399830DC0833631F0833771F0833528
S1130CB009F059C021C0F801808189830E5F1F4F5C
S1130CC088248394912C530113C02801F2E04F0E21
S1130CD0511CF801A080B18036FE03C0692D70E07C
S1130CE002C06FEF7FEFC5010E94BA074C01820179
S1130CF0F32DFF773F2E16C0280122E0420E511C2F
S1130D00F801A080B18036FE03C0692D70E002C0F6
S1130D106FEF7FEFC5010E94AF074C01F32DF06820
S1130D203F2E820133FC1BC0822D90E08816990669
S1130D30B0F4B60180E290E00E94C5072A94F4CF93
S1130D40F50137FC859137FE81915F01B60190E092
S1130D500E94C50721102A9421E0821A9108811467
S1130D60910471F7E8C0843611F0893641F5F80131
S1130D7037FE07C060817181828193810C5F1F4FB0
S1130D8008C060817181072E000C880B990B0E5FDF
S1130D901F4FF32DFF763F2E97FF09C09095809546
S1130DA0709561957F4F8F4F9F4FF0683F2E2AE0DB
S1130DB030E0A3010E940108882E861845C08537BB
S1130DC031F4232D2F7EB22E2AE030E025C0932D5E
S1130DD0997FB92E8F36C1F018F4883579F0B5C0F3
S1130DE0803719F0883721F0B0C0E92FE061BE2EBA
S1130DF0B4FE0DC0FB2DF460BF2E09C034FE0AC042
S1130E00292F2660B22E06C028E030E005C020E17C
S1130E1030E002C020E132E0F801B7FE07C0608193
S1130E207181828193810C5F1F4F06C06081718143
S1130E3080E090E00E5F1F4FA3010E940108882EFE
S1130E408618FB2DFF773F2E36FE0DC0232D2E7FF7
S1130E50A22E891458F434FE0BC032FC09C0832D31
S1130E608E7EA82E05C0B82CA32C03C0B82C01C0BC
S1130E70B92CA4FE0FC0FE01E80DF11D8081803362
S1130E8021F49A2D997EA92E09C0A2FE06C0B3941E
S1130E90B39404C08A2D867809F0B394A3FC11C0DE
S1130EA0A0FE06C0B21488F4280C922C9B180EC025
S1130EB0B21460F4B60180E290E00E94C507B394D6
S1130EC0F7CFB21418F42B1802C0982C212CA4FECE
S1130ED010C0B60180E390E00E94C507A2FE17C0CF
S1130EE0A1FC03C088E790E002C088E590E0B60169
S1130EF00CC08A2D867859F0A1FE02C08BE201C095
S1130F0080E2A7FC8DE2B60190E00E94C507891437
S1130F1038F4B60180E390E00E94C5079A94F7CFB5
S1130F208A94F301E80DF11D8081B60190E00E94DE
S1130F30C5078110F5CF222009F442CEB60180E224
S1130F4090E00E94C5072A94F6CFF6018681978126
S1130F5002C08FEF9FEF2B96E2E10C947E08FC0118
S1130F600590615070400110D8F7809590958E0FD0
S1130F709F1F0895FC016150704001900110D8F743
S1130F80809590958E0F9F1F08950F931F93CF9375
S1130F90DF93FB01238121FD03C08FEF9FEF2CC062
S1130FA022FF16C046815781248135814217530799
S1130FB044F4A081B1819D012F5F3F4F2083318391
S1130FC08C93268137812F5F3F4F2683378314C04C
S1130FD08B01EC01FB010084F185E02D0995892B3F
S1130FE0E1F6D80116968D919C9117970196169665
S1130FF08D939C931797CE01DF91CF911F910F9101
S11310000895FA01AA27283051F1203181F1E8949A
S11310106F936E7F6E5F7F4F8F4F9F4FAF4FB1E0E7
S11310203ED0B4E03CD0670F781F891F9A1FA11DE2
S1131030680F791F8A1F911DA11D6A0F711D811DE3
S1131040911DA11D20D009F468943F912AE0269FA8
S113105011243019305D3193DEF6CF010895462F07
S11310604770405D4193B3E00FD0C9F7F6CF462FE8
S11310704F70405D4A3318F0495D31FD4052419351
S113108002D0A9F7EACFB4E0A6959795879577950E
S11310906795BA95C9F700976105710508959B0195
S11310A0AC010A2E06945795479537952795BA951E
S11310B0C9F7620F731F841F951FA01D0895DC01DB
S11310C028ED209334006C9308952F923F924F9211
S11310D05F926F927F928F929F92AF92BF92CF92C4
S11310E0DF92EF92FF920F931F93CF93DF93CDB7CD
S11310F0DEB7CA1BDB0BCDBFDEBF09942A88398853
S113110048885F846E847D848C849B84AA84B9849B
S1131110C884DF80EE80FD800C811B81AA81B981A7
S1131120CE0FD11DCDBFDEBFED010895F894FFCFE2
S113113054696D6520506572696F64203D20256493
S11311402075730A004C6F772074696D65203D200B
S113115025642075730A00486967682054696D65C1
S1131160203D2025642075730A00414443205265C4
S11311706164696E67203D2025640A00566F6C74B3
S1101180616765203D202564206D560A003E
S105118D01005B
S9030000FC
