S00C00004C6162332E73726563D6
S11300000C9450000C946D000C946D000C946D00D5
S11300100C94E7000C946D000C946D000C946D002E
S11300200C946D000C946D000C946D000C946D0098
S11300300C946D000C946D000C946D000C946D0088
S11300400C946D000C946D000C946D000C946D0078
S11300500C946D000C946D000C946D000C946D0068
S11300600C946D000C946D000C946D000C946D0058
S11300700C946D000C946D000C946D000C946D0048
S11300800C946D000C946D000C946D000C946D0038
S11300900C946D000C946D000C946D000C946D0028
S11300A011241FBECFEFCDBFDFE3DEBF18E2A0E017
S11300B0B8E2EEE3F2E002C005900D92AE31B10772
S11300C0D9F728E2AEE1B8E201C01D92AF31B20720
S11300D0E1F70E94DA000C941D010C94000060E02A
S11300E081E690E00E9417010895609178006260B3
S11300F088E790E00E9417018091630085FDFCCFA2
S1130100809141018111FCCFE0E4F1E0178281E0AC
S11301108583828B81E6808B089580E780934004F9
S11301208FE08093000484E08093200480E3809334
S1130130A0040895E0E8F4E082E0828388E0818B03
S1130140089590E020C0882379F0E92FF0E09F0122
S1130150220F331FE20FF31FE050F84DA081B1814D
S1130160228115962C930EC0E92FF0E09F01220FF7
S1130170331FE20FF31FE050F84DA081B1812281BB
S113018016962C939F5F9A30F0F2089580E00FC08A
S1130190E82FF0E09F01220F331FE20FF31FE0501E
S11301A0F84DA081B181928117969C938F5F8A301C
S11301B078F308950E946F000E948D000E949A00B7
S11301C080E00E94A1000E9475007894FFCF1F92E6
S11301D00F920FB60F9211242F933F934F935F9377
S11301E06F937F938F939F93AF93BF93EF93FF93FB
S11301F081E08093530180911E288F5F80931E2895
S1130200833020F010921E280E94C600FF91EF91C7
S1130210BF91AF919F918F917F916F915F914F911A
S11302203F912F910F900FBE0F901F901895DC01F6
S111023028ED209334006C930895F894FFCFCA
S113023E400420400410000401A004204004402087
S111024E0404A00410000402000404000408C8
S9030000FC
