S01100004C6162325461736B332E737265630C
S11300000C9450000C9465000C9465000C946500ED
S11300100C9465000C9465000C9465000C946500C8
S11300200C9465000C9465000C9465000C946500B8
S11300300C9465000C9465000C9465000C946500A8
S11300400C9465000C9465000C9465000C94650098
S11300500C9465000C9465000C9465000C94650088
S11300600C9465000C9465000C9465000C94650078
S11300700C9465000C9465000C9465000C94650068
S11300800C9465000C9465000C9465000C94650058
S11300900C9465000C9465000C9465000C94650048
S11300A011241FBECFEFCDBFDFE3DEBF18E2A0E017
S11300B0B8E2E4EDF2E002C005900D92AE31B10772
S11300C0D9F70E9445010C9468010C94000060E08B
S11300D081E690E00E946201089580E00FC0E82F5D
S11300E0F0E09F01220F331FE20FF31FE050F84DA1
S11300F0A081B181928111969C938F5F8A3078F3AD
S1130100089520E049C0211120C0822F90E0AC0165
S11301104F5F5F4FFA01EE0FFF1F4E0F5F1FFA0193
S1130120E050F84DA081B181328115963C93FC01D9
S1130130EE0FFF1F8E0F9F1FFC01E050F84DA081B2
S1130140B181828116968C931DC0822F90E0FC01B0
S11301503197AF01440F551FE40FF51FE050F84DE0
S1130160A081B181328115963C93FC01EE0FFF1FF3
S11301708E0F9F1FFC01E050F84DA081B181828158
S113018016968C933FE181EA97E03150804090408D
S1130190E1F700C000002F5F293008F4B4CF29E054
S11301A049C0293001F5822F90E0AC01415051093A
S11301B0FA01EE0FFF1F4E0F5F1FFA01E050F84DDA
S11301C0A081B181328115963C93FC01EE0FFF1F93
S11301D08E0F9F1FFC01E050F84DA081B1818281F8
S11301E016968C931DC0822F90E0FC013196AF01CE
S11301F0440F551FE40FF51FE050F84DA081B18165
S1130200328115963C93FC01EE0FFF1F8E0F9F1F4A
S1130210FC01E050F84DA081B181828116968C9347
S11302203FE181EA97E0315080409040E1F700C01F
S1130230000021502111B5CF089580E00FC0E82FB0
S1130240F0E09F01220F331FE20FF31FE050F84D3F
S1130250A081B181928115969C938F5F8A3078F347
S1130260089580E00FC0E82FF0E09F01220F331FB4
S1130270E20FF31FE050F84DA081B18192811696F0
S11302809C938F5F8A3078F308950E9467000E94E0
S11302906D000E9431012FEF88E09DE321508040E2
S11302A09040E1F700C000000E941D012FEF88E09C
S11302B09DE3215080409040E1F700C000000E947F
S11302C08100FDCFDC0128ED209334006C93089568
S10702D0F894FFCFCC
S11302D4400420400410000401A0042040044020F1
S11102E40404A0041000040200040400040832
S9030000FC
